:100000000C943F010C9467010C9467010C946701F8
:100010000C9467010C9467010C9467010C946701C0
:100020000C9467010C9467010C9467010C946701B0
:100030000C9467010C9467010C9467010C946701A0
:100040000C947F050C9467010C9467010C94670174
:100050000C9467010C9467010C9467010C94670180
:100060000C9467010C94670107634236B79BD8A7CD
:100070001A39685618AEBAAB558C1D3CB7CC5763CD
:10008000BD6DEDFD753EF6177231BF000000803F7B
:1000900008000000BE922449123EABAAAA2ABECD97
:1000A000CCCC4C3E00000080BEABAAAAAA3E000009
:1000B0000000BF000000803F000000000008417801
:1000C000D3BB4387D1133D190E3CC3BD4282AD2B38
:1000D0003E68EC8276BED98FE1A93E4C80EFFFBE30
:1000E00001C4FF7F3F00000000004E414E494E49D1
:1000F0005459494E46CDCCCC3D0AD7233C17B7D1F5
:100100003877CC2B329595E6241FB14F0A0000209A
:10011000410000C84200401C4620BCBE4CCA1B0E19
:100120005AAEC59D7400407A10F35A00A0724E1862
:10013000090010A5D4E80000E87648170000E40B99
:1001400054020000CA9A3B000000E1F5050000805F
:10015000969800000040420F000000A086010000B9
:1001600000102700000000E8030000000064000009
:100170000000000A00000000000100000000002C48
:1001800076D888DC674F0823DFC1DFAE59E1B1B70D
:1001900096E5E3E453C63AE651997696E8E6C284DA
:1001A00026EB898C9B62ED407C6FFCEFBC9C9F40F2
:1001B000F2BAA56FA5F490055A2AF75C936B6CF917
:1001C000676DC11BFCE0E40D47FEF520E6B500D0ED
:1001D000ED902E0300943577050080841E08000002
:1001E000204E0A000000C80C333333330F986E12D0
:1001F000831141EF8D2114893BE65516CFFEE6DBD6
:1002000018D1844B381BF77C1D901DA4BBE424201F
:100210003284725E228100C9F124ECA1E53D270001
:10022000000000240027002A00000000002500280C
:10023000002B000000000023002600290004040415
:10024000040404040402020202020203030303037F
:10025000030102040810204080010204081020015C
:10026000020408102000000008000201000003043E
:1002700007000000000000000000D9095C0A1124FA
:100280001FBECFEFD8E0DEBFCDBF21E0A4E4B1E0D8
:1002900001C01D92A83FB207E1F711E0A0E0B1E074
:1002A000E8ECFAE202C005900D92A434B107D9F748
:1002B00011E0CEE3D1E004C02197FE010E945F135C
:1002C000CD33D107C9F70E94C9050C9457150C947A
:1002D000000096E0899FD0011124AB59BE4F909643
:1002E0007C936E935F9791E091969C939197E091A8
:1002F000D201F091D3019091D101992339F0309737
:1003000051F0811108C0809181010994309719F052
:100310005C968C91FACF0895CF92DF92EF92FF9284
:100320000F931F9396E0899FF0011124EB59FE4F24
:1003300011A2278D30A12130310551F178F0223002
:10034000310509F451C02330310509F452C01F9121
:100350000F91FF90EF90DF90CF9008956623B9F34F
:1003600061E070E00E9469012FB7F894809161010B
:1003700090916201A0916301B09164012FBF8093BD
:10038000BD019093BE01A093BF01B093C001DFCF28
:100390009FB7F894C0906101D0906201E090630132
:1003A000F09064019FBF0091BD011091BE012091AA
:1003B000BF013091C001C01AD10AE20AF30A0091CC
:1003C000CF011091D00130E020E00C151D052E0565
:1003D0003F0550F462E070E01F910F91FF90EF90A5
:1003E000DF90CF900C9469016111B1CF63E070E0B0
:1003F000F3CF70E060E0F0CF833081F028F48130FB
:1004000099F08230A9F008958730A9F08830C9F0BA
:100410008430B1F4809180008F7D03C08091800092
:100420008F7780938000089584B58F7784BD089579
:1004300084B58F7DFBCF8091B0008F778093B00023
:1004400008958091B0008F7DF9CFCF93DF93282F4F
:1004500030E0F901EB59FD4F8491F901EF5AFD4F5E
:10046000D491F901E35CFD4FC491CC23A1F081113B
:100470000E94FC01EC2FF0E0EE0FFF1FED5CFD4F42
:10048000A591B491EC91ED2381E090E009F480E036
:10049000DF91CF91089580E090E0FACF1F93CF9342
:1004A000DF93282F30E0F901EB59FD4F8491F901DA
:1004B000EF5AFD4FD491F901E35CFD4FC491CC2379
:1004C000A9F0162F81110E94FC01EC2FF0E0EE0F35
:1004D000FF1FE75DFD4FA591B4918FB7F894EC91A4
:1004E000111108C0D095DE23DC938FBFDF91CF912F
:1004F0001F910895DE2BF8CFCF93DF9390E0FC019E
:10050000EF5AFD4F2491835C9D4FFC018491882319
:10051000C9F090E0880F991FFC01E15EFD4FA591A5
:10052000B491FC01E75DFD4FC591D49161110DC0FF
:100530009FB7F8948C91209582238C9388812823EF
:1005400028839FBFDF91CF910895623051F49FB708
:10055000F8943C91822F809583238C93E8812E2BF5
:10056000EFCF8FB7F894EC912E2B2C938FBFEACF5F
:100570003FB7F89480915D0190915E01A0915F0179
:10058000B091600126B5A89B05C02F3F19F00196D8
:10059000A11DB11D3FBFBA2FA92F982F8827BC01DD
:1005A000CD01620F711D811D911D42E0660F771F05
:1005B000881F991F4A95D1F70895862F642F0C94B0
:1005C0007C02862F642F0C944E02862F0C942502F9
:1005D0000895AF92BF92CF92DF92EF92FF920F9366
:1005E0001F93CF93DF936C017B018B01040F151FC9
:1005F000EB015E01AE18BF08C017D10759F0699131
:10060000D601ED91FC910190F081E02DC601099594
:10061000892B79F7C501DF91CF911F910F91FF9041
:10062000EF90DF90CF90BF90AF900895FC01448190
:100630005581608171818AED91E00C94E90290E02E
:1006400080E00895CF93DF93EC018091D4019091E5
:10065000D5010097E9F06881798161157105B1F0E4
:100660004091D6015091D7012C813D81421753070B
:1006700068F00E9450158C819D819093D9018093E0
:10068000D8011D821C82DF91CF9108950E94011430
:10069000888199819093D5018093D4018A819B812F
:1006A0009093D7018093D6018C819D819093D9013D
:1006B0008093D801198218821B821A82E2CFCF93CD
:1006C000DF93EC0188819981009711F00E94011459
:1006D000198218821D821C821B821A82DF91CF919F
:1006E0000895FC0180819181009711F00C94011410
:1006F0000895CF93DF93EC0160E08E810E944E025B
:1007000061E08E810E944E0260E08E810E944E0266
:100710008BE891E00197F1F7DF91CF910895CF92A7
:10072000DF92EF92FF920F931F93CF93DF936C01B1
:100730007C0187E0E80EF11CD0E0C0E0062F10E05D
:10074000B8010C2E02C0759567950A94E2F76170A6
:10075000F70181917F010E944E022196C430D1059C
:1007600079F7C601DF91CF911F910F91FF90EF9024
:10077000DF90CF900C947903CF92DF92EF92FF92AB
:100780000F931F93CF93DF93EC01F62E642F8C8190
:100790000E944E028D818F3F19F060E00E944E0250
:1007A0000F2D10E08F8584FF25C06E0187E0C80EF5
:1007B000D11CF12CE12CB8010E2C02C07595679567
:1007C0000A94E2F76170F60181916F010E944E0276
:1007D000FFEFEF1AFF0A88E0E816F10461F7CE0197
:1007E000DF91CF911F910F91FF90EF90DF90CF900D
:1007F0000C947903B80184E0759567958A95E1F7C3
:10080000CE010E948F036F2DCE01DF91CF911F91FA
:100810000F91FF90EF90DF90CF900C948F0340E00A
:10082000682F8AED91E00C94BC0381E00E940F04D4
:100830008BE39FE10197F1F70895CF93DF93823027
:1008400029F49091E90198609093E9018093ED017A
:100850001092EE0180E48093EF0180E18093F0013B
:1008600080E58093F10161E08091DE010E947C02CD
:100870008091DF018F3F19F061E00E947C0261E00E
:100880008091E0010E947C02CAEDD1E09E012A5DC8
:1008900031408091E90184FD0BC084E090E0219615
:1008A0002817390744F461E08E810E947C02EECF64
:1008B00088E090E0F4CF8BE39DE00197F1F760E0F2
:1008C0008091DE010E944E0260E08091E0010E9472
:1008D0004E028091DF018F3F19F060E00E944E02CE
:1008E0008091E90184FD34C063E08AED91E00E94CB
:1008F0008F03CBE4D6E4CE010197F1F763E08AEDF4
:1009000091E00E948F032197F1F763E08AED91E077
:100910000E948F0383E592E00197F1F762E08AED90
:1009200091E00E948F038091E90180620E940F0490
:1009300084E08093EA018CE00E940F040E94150479
:1009400082E08093EB0186E0DF91CF910C940F045D
:1009500080620E940F048BE496E40197F1F7809186
:10096000E90180620E940F0483E592E00197F1F7AC
:100970008091E90180620E940F04D5CF9091ED0132
:10098000691710F06FEF690FE62FF0E0E652FE4FA7
:100990009489890F80680C940F0441E00E94BC0385
:1009A00081E090E00895FC0180819181009711F031
:1009B0000C94860A60E070E0CB0108950F931F93BA
:1009C000CF93DF93EC0188819981009759F02A81B8
:1009D0003B812617370730F081E0DF91CF911F91DF
:1009E0000F9108958B016F5F7F4F0E948A140097CB
:1009F00059F0998388831B830A832C813D81232BA3
:100A000059F7FC011082E8CF80E0E7CFCF93DF9366
:100A1000EC01198218821B821A821D821C8270E0EE
:100A200060E00E94DE04811105C0CE01DF91CF910C
:100A30000C945F031D821C8263E471E088819981BC
:100A4000DF91CF910C945015EF92FF920F931F936B
:100A5000CF93DF938C017B01EB0109900020E9F734
:100A60002197C61BD70BBE010E94DE04811109C06D
:100A7000C801DF91CF911F910F91FF90EF900C94DF
:100A80005F03F801D583C483B70180819181DF9131
:100A9000CF911F910F91FF90EF900C945015EF9212
:100AA000FF920F931F93CF93DF9300D0CDB7DEB7A4
:100AB0008C0169831A82FC01E480F580FFEFEF1A54
:100AC000FF0AB7010E94DE04882381F0F80120812B
:100AD000318184819581BE016F5F7F4F820F931FAB
:100AE0000E945015F801F582E48281E00F900F908A
:100AF000DF91CF911F910F91FF90EF9008951F927A
:100B00000F920FB60F9211242F933F938F939F93C1
:100B1000AF93BF938091610190916201A0916301B5
:100B2000B091640130915C0123E0230F2D3758F51B
:100B30000196A11DB11D20935C01809361019093EA
:100B40006201A0936301B093640180915D01909173
:100B50005E01A0915F01B09160010196A11DB11DE0
:100B600080935D0190935E01A0935F01B09360015B
:100B7000BF91AF919F918F913F912F910F900FBE99
:100B80000F901F90189526E8230F0296A11DB11D06
:100B9000D2CFCF93DF93CDB7DEB7A8970FB6F89437
:100BA000DEBF0FBECDBF789484B5826084BD84B5AE
:100BB000816084BD85B5826085BD85B5816085BD58
:100BC00080916E00816080936E0010928100809110
:100BD0008100826080938100809181008160809398
:100BE0008100809180008160809380008091B100BD
:100BF00084608093B1008091B00081608093B000E8
:100C000080917A00846080937A0080917A0082607B
:100C100080937A0080917A00816080937A0080913D
:100C20007A00806880937A001092C10082E00E946E
:100C30001D0460E080E00E94BE044AE050E069E3E9
:100C400071E08AED91E00E94E9020E94B8024B0136
:100C50005C0158EEC52E53E0D52EE12CF12C0E94FC
:100C6000B802681979098A099B09683E73408105B1
:100C70009105A8F321E0C21AD108E108F10888EE35
:100C8000880E83E0981EA11CB11CC114D104E1049C
:100C9000F10429F70E941504412C512C3201439490
:100CA00046E0242EF1E0F093D1018FB7F894409103
:100CB00061015091620160916301709164018FBF85
:100CC0008091C1019091C201A091C301B091C40172
:100CD000481B590B6A0B7B0B8091CD019091CE0183
:100CE000B0E0A0E084179507A607B70708F03BC15E
:100CF00010E08091CB01181760F4E091C701F091EA
:100D0000C801E10FF11D62E080810E947C021F5F3B
:100D1000F0CFE12C8091CC01E81608F061C0CE2C18
:100D2000D12CE091C901F091CA01EC0DFD1D61E0EB
:100D300080810E947C02E091C901F091CA01EC0D12
:100D4000FD1D60E080810E944E02D301C2010E2C85
:100D500004C0880F991FAA1FBB1F0A94D2F74C0129
:100D60005C01A094B094312C8091CB01381608F529
:100D7000032D10E0E091C701F091C801E00FF11FD1
:100D800080810E9425020C5F1F4F000F111FF80188
:100D9000EB59FE4F892B41F4808191818829992953
:100DA000918380833394E0CF808191818A219B213C
:100DB000F7CFE091C901F091CA01EC0DFD1D61E092
:100DC00080810E944E028091C9019091CA01C80E93
:100DD000D91E60E0F60180810E947C02E3949ACFE4
:100DE00095E6C92E91E0D92E8601F801878D90A154
:100DF000892B31F4148E8FEF9FEF968F858F11A280
:100E00000A5F1F4FE1EAF1E0E017F10771F7E12C0B
:100E10008091CB01E81608F052C0B12C8E2C912C99
:100E2000880C991CC40183599E4F4C012091CC0120
:100E3000B21608F042C0F401608171810B2C02C02F
:100E4000769567950A94E2F7E29E900111242B0DA6
:100E5000311DE5E6F1E080E0458D568D241735071C
:100E600009F4A5C28F5F36968A30B1F760FF23C0C0
:100E7000E5E6F1E090E080E0448D411117C0E0919B
:100E8000C501F091C601E20FF31F4081289EF001D9
:100E9000299EF00D1124EB59FE4F448F368F258F7C
:100EA00010A2178E61E00E948C0105C00196369653
:100EB0008A30910509F7B394B9CFE394A9CF80E0C4
:100EC000F60191A19111892FF6E0CF0ED11CC01629
:100ED000D106B1F79FB7F89440916101509162013A
:100EE00060916301709164019FBF4093C101509371
:100EF000C2016093C3017093C4018823A1F1809162
:100F00008601882381F18091840190918501019768
:100F100051F51091810111112AC080915B0181115D
:100F200074C0112309F471C0183769F0812F8B7FC9
:100F30008B3249F0123739F01E3529F0812F877F27
:100F4000853209F062C0E1E0E0935B0160E08FE090
:100F50000E94BE0410934C0141E0612F8AED91E0A4
:100F60000E94BC0328C01092D10110E0D6CF812F7F
:100F7000012E000C990BC0978A30910510F01E329B
:100F800061F620915B01211122C01E32E1F4209113
:100F90005A01211118C021E020935A016EE284E524
:100FA00091E00E944F0560E080E00E94BE0484E56D
:100FB00091E00E94160380E090E0892B09F472CE44
:100FC0000E9400006FCE0A9770F7612FE8CF1E32A3
:100FD000C1F420915A01211114C081E080935A017B
:100FE0006EE28EE491E00E944F0561E080E00E9495
:100FF000BE048EE491E00E94160391E090934D01AF
:10100000DACF0A9790F7612FECCF80914D018823BA
:1010100009F49CC1112379F21D3309F097C10E9494
:10102000150460E080E00E94BE0484E591E00E9427
:10103000160341E060914C018AED91E00E94BC03EF
:101040008EE491E00E94160361E080E00E94BE04FD
:1010500080914C018B3209F074C0809154019091C1
:1010600055010E948A0A4B015C0180914E019091CA
:101070004F010E948A0A860E971EA81EB91E8092F2
:10108000480190924901A0924A01B0924B0184E537
:1010900091E00E94D3044B015C018EE491E00E9438
:1010A000D304A50194010E94281060934401709319
:1010B00045018093460190934701C0904801D0902C
:1010C0004901E0904A01F0904B01809044019090DA
:1010D0004501A0904601B0904701C701B6010E94AA
:1010E000B60EA50194010E94AF0E1CA21BA21EA267
:1010F0001DA218A61FA2811117C12AE0AE014F5FE1
:101100005F4FC701B6010E94B10ABE016F5F7F4FFA
:10111000CE0183960E942405CE0183960E9422036D
:10112000CE0183960E94710384ED91E00E94160324
:101130008091EB018E7F8093EB0184600E940F040D
:101140003ACF8D3259F580915401909155010E940A
:101150008A0A4B015C0180914E0190914F010E94DF
:101160008A0A861A970AA80AB90A809248019092B8
:101170004901A0924A01B0924B0184E591E00E949E
:10118000D3044B015C018EE491E00E94D3049B01E7
:10119000AC01C501B4010E94271087CF883749F5FB
:1011A00080915401909155010E948A0A4B015C0183
:1011B00080914E0190914F010E948A0AA5019401ED
:1011C0000E940E13609348017093490180934A0175
:1011D00090934B0184E591E00E94D3044B015C01A4
:1011E0008EE491E00E94D304A50194010E94150FA2
:1011F0005CCF8F3269F580915401909155010E9426
:101200008A0A4B015C0180914E0190914F010E942E
:101210008A0A9B01AC01C501B4010E941E132093F0
:1012200048013093490140934A0150934B0184E5B2
:1012300091E00E94D3044B015C018EE491E00E9496
:10124000D3049B01AC01C501B4010E9494102DCFC1
:101250008237C9F484E591E00E94D3040E94921180
:101260006093440170934501809346019093470138
:101270000E940611609348017093490180934A01CE
:1012800090934B011ACF8E35B9F580914E01909114
:101290004F010E948A0A4B015C0180915401909198
:1012A00055010E948A0A6B017C01C501B4010E94AC
:1012B000B60E4B015C01C701B6010E94B60EA50136
:1012C00094010E943C110E940611609348017093A2
:1012D000490180934A0190934B018EE491E00E9472
:1012E000D3044B015C0184E591E00E94D304A50185
:1012F00094010E943C11D9CE853209F0DECE84E5FE
:1013000091E00E94D3044B015C018EE491E00E94C5
:10131000D30420E030E048EC52E40E949410A50190
:1013200094010E94150F9CCF8E010F5F1F4F22E08A
:1013300044E0C501B4010E94680A009711F0BC01A5
:10134000E7CECE0183960E945F03E6CE133409F008
:1013500032CE0E94150410925B0110924D0163E49D
:1013600071E084E591E00E94240563E471E08EE47D
:1013700091E00E94240563E471E084ED91E00E9415
:101380002405109248011092490110924A011092CE
:101390004B011092440110924501109246011092A7
:1013A0004701F0E2F0934C0110925A0104CE6170B3
:1013B0007ACD1092DD011092DC0181E391E09093EF
:1013C000DB018093DA018CE08093DE018FEF809364
:1013D000DF018BE08093E0018AE08093E10189E006
:1013E0008093E20188E08093E30187E08093E40149
:1013F0001092E5011092E6011092E7011092E801C7
:101400001092E90181E00E941D0410926701109280
:101410006B0110926A0110926C0187E291E0909347
:10142000660180936501E1E8F1E010821482138285
:101430001582369681E0ED3BF807B9F784E091E03C
:101440009093C8018093C70180E091E09093CA0116
:101450008093C90185E08093CB0184E08093CC0127
:1014600089E091E09093C6018093C5018AE090E005
:101470009093CE018093CD0184EF91E09093D001C1
:101480008093CF011092D3011092D2011092C1012A
:101490001092C2011092C3011092C4011092D101A6
:1014A00084E591E00E9406058EE491E00E94060525
:1014B00084ED91E00C94060584ED91E00E947103A7
:1014C0008EE491E00E94710384E591E00C94710335
:1014D000EF920F931F93CF93DF93E80134E047FD22
:1014E00034E1042E000C550B57FF03C05195419574
:1014F0005109E32E022F242FAE010E94F70ACE01DC
:10150000DF91CF911F910F91EF9008956627772774
:101510000C94560C1F93FC0199278827BC01E89472
:1015200011911032E9F3193010F01E30C8F31B325C
:1015300051F01D3249F4689406C00E94C00A610F40
:10154000711D811D911D119110531A30B0F33EF49D
:1015500090958095709561957F4F8F4F9F4F1F910C
:101560000895BB272A3051F4992342F4BDE29095A7
:101570008095709561957F4F8F4F9F4F0C94D60A41
:10158000592F482F372F262F660F771F881F991F37
:10159000660F771F881F991F620F731F841F951F87
:1015A000660F771F881F991F0895BB27FA01A62F82
:1015B0006217710581059105330B30FB66F0AA2790
:1015C000660F771F881F991FAA1FA21710F0A21B72
:1015D00063953850A9F7A05DAA3308F0A95DA193DF
:1015E00036F7B111B1931082CA010C949F0EA9E095
:1015F000B0E0EDEFFAE00C94E70F6A01F22EB02EA6
:10160000102FFBE3AF2EA01608F41BE31F5F012F82
:1016100027E0AE014F5F5F4F0E94A60DBC0189819C
:10162000982F9970913009F43FC09BE2E1FC04C00F
:101630009E2D9170E0FC3AC05E2D5071E82FE8704D
:1016400083FF46C084E0911101C083E0EF2DE81BC9
:101650008F1508F0E0E0D6018E2F20E2552351F1DE
:10166000992329F0D6019C93C60101966C0196013D
:101670002D5F3F4FE2FE24C08EE4D6018C9391E4AF
:1016800011969C93119712968C93D9018E2F90E20C
:1016900081111BC0E20FF32FF11D10828EEF9FEF1F
:1016A0002996ECE00C9403109DE2C6CF90E2C4CFE3
:1016B0002D9381508111FCCFCE0ED11CE0E0D0CF14
:1016C0008EE6D6018C9391E6DBCF9D938150E0CFDF
:1016D000482F447082FF3DC084E0911101C083E037
:1016E0008F1510F4EF2DE81BD6018E2F20E2552325
:1016F00009F1992329F0D6019C93C60101966C014A
:1017000096012D5F3F4FE2FE1BC089E4D6018C930A
:101710008EE411968C93119786E412968C93D901DE
:101720008E2F90E2882309F4B5CF9D938150FACF94
:101730002D9381508111FCCFCE0ED11CE0E0D9CF8A
:1017400089E6D6018C938EE611968C93119786E6E6
:10175000E4CF9B0177FF02C030E020E0A1E0B0E0E1
:10176000911102C0B0E0A0E0F9013196AE0FBF1FA9
:101770008B2C912CBB2009F461C05401EFEFAE1A01
:10178000BE0AAA0DBB1DFA161B0619F014F04F2D48
:101790004A1B511188C0E3FC59C07601A42FB0E266
:1017A000A1114FC0C40ED11C992309F45BC040E0C5
:1017B000D6011196F60190836D01552309F448C0B6
:1017C000012F060F9A81582F507184FF03C0913367
:1017D00009F4015010160CF047C0093008F008E079
:1017E000EEE2FE2E5B01A01AB1088501919481946E
:1017F00091082F3F320729F4D601FC92F601319669
:101800006F016217730794F1021713077CF5DB0170
:10181000A21BB30BAA24A394B12CAC0EBD1EAA0D1F
:10182000BB1D11968C9121503109D60111962815B6
:101830003905F4F0F60180836D01DBCFB12CA12CCA
:10184000A0CFF701B1937F01A150AACF9111B0CFE2
:10185000D601942F50E302C05D9391509111FCCFBB
:10186000C40ED11C40E0ACCF01E0BACF80E3DBCFA7
:101870006217730731F4963388F4953311F45523C6
:1018800069F0F6018083FD01842F90E2811108C088
:10189000A40FB11D1C9290E080E002CF81E3F1CF54
:1018A00091938150F3CF911183CF8ACFB0E0A0E024
:1018B000ECE5FCE00C94E70F5C017B016115710520
:1018C00019F0DB018D939C9385010F5F1F4FF5018C
:1018D000D0818D2F90E00E947E0E6C01892BB9F58E
:1018E000DD32B9F50F5F1F4FD5011196DC91C1E0D4
:1018F0005801F1E0AF1AB10843E050E062EF70E048
:10190000C5010E94870E892B69F5680182E0C80E27
:10191000D11C45E050E06DEE70E0C6010E94870EDC
:10192000892B21F4680197E0C90ED11CE114F10460
:1019300019F0D701CD92DC9260E070E080E89FEF73
:10194000C111FFC060E070E080E89FE7FAC0580175
:10195000BBCFDB3229F485010E5F1F4FF501D1812A
:10196000C0E0C6CF43E050E06AEE70E0C5010E94DF
:10197000870E892BE9F0F80110E000E020E030E06C
:10198000A9015F01B0ED8B2E8D0E89E08815C8F19D
:101990009C2E689491F88C2F8870C2FF16C081111C
:1019A00002C00F5F1F4F3196D501DC91C92DE9CFE1
:1019B000E114F10429F00E5F1F4FF701118300833A
:1019C00060E070E080EC9FE7BCC0882311F001501C
:1019D0001109A5E0B0E00E94D60F9B01AC01220FD7
:1019E000331F441F551F280D311D411D511D28391E
:1019F00099E93907490799E15907A8F2C6609C2E71
:101A0000D2CFAEEF8A1206C0C3FD3CC09C2E6894B4
:101A100093F8C9CFDF7DD534A9F580818D3239F4B3
:101A2000C061DF011296818162E070E006C0DF01D3
:101A30008B32C1F3119661E070E080535D01A61A0C
:101A4000B70A8A30F8F4E0E8CE16ECE0DE065CF483
:101A5000B601660F771F660F771FC60ED71ECC0C18
:101A6000DD1CC80ED11C5D01FFEFAF1ABF0A8C91BF
:101A700080538A30A8F1C4FF03C0D194C194D10827
:101A80000C0D1D1DC1FF09C0E114F10431F081E00E
:101A9000A81AB108D701AD92BC92CA01B9010E943F
:101AA000B40EC370C33009F490584B015C0120E0C0
:101AB00030E0A9010E94AF0E882309F440C0C1E2C2
:101AC000D1E017FF05C0119501951109C9E0D1E0DA
:101AD0006E01B8E1CB1AD10880E2E82EF12C0FC0DC
:101AE000D501B1CFFE0125913591459154910E1943
:101AF0001F09C501B4010E94150F4B015C01D501FE
:101B0000C4010E151F0574F72497F594E794CC16BD
:101B1000DD06A9F78A2F880F8B2F881F8F3F49F08A
:101B200020E030E0A901C501B4010E94AF0E81118F
:101B300006C082E290E09093F3018093F201C50128
:101B4000B401CDB7DEB7ECE00C940310283008F0F8
:101B500027E03327DA01990F311D87FD9160009648
:101B60006105710539F432602E5F3D9330E32A95AB
:101B7000E1F708959F3F30F080387105610509F065
:101B80003C5F3C5F3D93913008F08068911DDF938E
:101B9000CF931F930F93FF92EF92192F987F9695F3
:101BA000E92F96959695E90FFF27E158FE4F992763
:101BB0003327EE24FF24A701E7010590089407943A
:101BC00028F4360FE71EF81E491F511D660F771FB8
:101BD000881F991F0694A1F70590079428F4E70E33
:101BE000F81E491F561FC11D770F881F991F661FBA
:101BF0000694A1F70590079428F4F80E491F561F84
:101C0000C71FD11D880F991F661F771F0694A1F764
:101C10000590079420F4490F561FC71FD81F990F2E
:101C2000661F771F881F0694A9F784911095177077
:101C300041F0D695C79557954795F794E7941A952F
:101C4000C1F7E5E2F1E06894159015913591659141
:101C5000959105907FE27395E118F10A430B560BBD
:101C6000C90BD009C0F7E10CF11E431F561FC91F55
:101C7000D01D7EF4703311F48A95E6CFE8940150BC
:101C800030F0080F0AF40027021708F4202F2395DC
:101C9000022F7A3328F079E37D932A95E9F710C073
:101CA0007D932A9589F606949795679537951795AC
:101CB0001794E118F10A430B560BC90BD00998F0A1
:101CC00023957E9173957A3308F070E37C9320130B
:101CD000B8F77E9170617D9330F0839571E37D93C9
:101CE00070E32A95E1F71124EF90FF900F911F9177
:101CF000CF91DF91992787FD9095089591110C94CC
:101D0000820F803219F089508550C8F70895FB0181
:101D1000DC014150504088F08D9181341CF08B35AE
:101D20000CF4805E659161341CF06B350CF4605EE0
:101D3000861B611171F3990B0895881BFCCFDC01A0
:101D4000FC01672F71917723E1F7329704C07C91F2
:101D50006D9370836291AE17BF07C8F308950E9418
:101D6000F10E08F481E00895E89409C097FB3EF471
:101D700090958095709561957F4F8F4F9F4F9923D8
:101D8000A9F0F92F96E9BB279395F6958795779556
:101D90006795B795F111F8CFFAF4BB0F11F460FF16
:101DA0001BC06F5F7F4F8F4F9F4F16C0882311F06E
:101DB00096E911C0772321F09EE8872F762F05C082
:101DC000662371F096E8862F70E060E02AF09A951D
:101DD000660F771F881FDAF7880F9695879597F912
:101DE0000895990F0008550FAA0BE0E8FEEF1616AC
:101DF0001706E807F907C0F012161306E407F507FF
:101E000098F0621B730B840B950B39F40A2661F072
:101E1000232B242B252B21F408950A2609F4A14015
:101E2000A6958FEF811D811D08950E94280F0C94A7
:101E30009C0F0E948E0F38F00E94950F20F0952382
:101E400011F00C94850F0C948B0F11240C94D00F6F
:101E50000E94AD0F70F3959FC1F3950F50E0551F91
:101E6000629FF001729FBB27F00DB11D639FAA27EF
:101E7000F00DB11DAA1F649F6627B00DA11D661F3E
:101E8000829F2227B00DA11D621F739FB00DA11D5F
:101E9000621F839FA00D611D221F749F3327A00D19
:101EA000611D231F849F600D211D822F762F6A2FB5
:101EB00011249F5750409AF0F1F088234AF0EE0F1A
:101EC000FF1FBB1F661F771F881F91505040A9F747
:101ED0009E3F510580F00C94850F0C94D00F5F3F0E
:101EE000E4F3983ED4F3869577956795B795F79583
:101EF000E7959F5FC1F7FE2B880F911D96958795FB
:101F000097F9089599278827089597F99F6780E89A
:101F100070E060E008959FEF80EC089500240A943B
:101F20001616170618060906089500240A941216B4
:101F30001306140605060895092E0394000C11F4E7
:101F4000882352F0BB0F40F4BF2B11F460FF04C094
:101F50006F5F7F4F8F4F9F4F089557FD9058440FED
:101F6000551F59F05F3F71F04795880F97FB991FF8
:101F700061F09F3F79F087950895121613061406B5
:101F8000551FF2CF4695F1DF08C016161706180642
:101F9000991FF1CF86957105610508940895E8941D
:101FA000BB2766277727CB0197F908950E94181061
:101FB000A59F900DB49F900DA49F800D911D11249D
:101FC00008952F923F924F925F926F927F928F92DD
:101FD0009F92AF92BF92CF92DF92EF92FF920F93B8
:101FE0001F93CF93DF93CDB7DEB7CA1BDB0B0FB6C2
:101FF000F894DEBF0FBECDBF09942A88398848887F
:102000005F846E847D848C849B84AA84B984C88414
:10201000DF80EE80FD800C811B81AA81B981CE0F0B
:10202000D11D0FB6F894DEBF0FBECDBFED010895F0
:10203000A29FB001B39FC001A39F700D811D112409
:10204000911DB29F700D811D1124911D089550584E
:10205000BB27AA270E943F100C949C0F0E948E0F52
:1020600038F00E94950F20F039F49F3F19F426F4C0
:102070000C948B0F0EF4E095E7FB0C94850FE92F81
:102080000E94AD0F58F3BA176207730784079507CC
:1020900020F079F4A6F50C94CF0F0EF4E0950B2EFA
:1020A000BA2FA02D0B01B90190010C01CA01A001AA
:1020B0001124FF27591B99F0593F50F4503E68F105
:1020C0001A16F040A22F232F342F4427585FF3CF46
:1020D000469537952795A795F0405395C9F77EF417
:1020E0001F16BA0B620B730B840BBAF09150A1F060
:1020F000FF0FBB1F661F771F881FC2F70EC0BA0FE6
:10210000621F731F841F48F4879577956795B7956D
:10211000F7959E3F08F0B0CF9395880F08F0992768
:10212000EE0F9795879508950E94A8100C949C0F28
:102130000E94950F58F00E948E0F40F029F45F3FE7
:1021400029F00C94850F51110C94D00F0C948B0F27
:102150000E94AD0F68F39923B1F3552391F3951BBA
:10216000550BBB27AA2762177307840738F09F5FB8
:102170005F4F220F331F441FAA1FA9F335D00E2E25
:102180003AF0E0E832D091505040E695001CCAF792
:102190002BD0FE2F29D0660F771F881FBB1F261755
:1021A00037074807AB07B0E809F0BB0B802DBF012C
:1021B000FF2793585F4F3AF09E3F510578F00C94FB
:1021C000850F0C94D00F5F3FE4F3983ED4F38695CF
:1021D00077956795B795F7959F5FC9F7880F911D1C
:1021E0009695879597F90895E1E0660F771F881F08
:1021F000BB1F621773078407BA0720F0621B730BBB
:10220000840BBA0BEE1F88F7E09508950E940D111C
:102210006894B1110C94D00F08950E94B50F88F006
:102220009F5798F0B92F9927B751B0F0E1F0660F9A
:10223000771F881F991F1AF0BA95C9F714C0B130DB
:1022400091F00E94CF0FB1E008950C94CF0F672F4B
:10225000782F8827B85F39F0B93FCCF3869577950A
:102260006795B395D9F73EF49095809570956195F3
:102270007F4F8F4F9F4F0895FA01EE0FFF1F30964B
:1022800021053105A1F16115710561F48038BFE3C5
:102290009B0749F168949038810561F08038BFEF61
:1022A0009B0741F099234AF5FF3FE10531052105E0
:1022B00019F1E8940894E795D901AA2329F4AB2FE2
:1022C000BE2FF85FD0F310C0FF5F70F4A695E0F763
:1022D000F73950F019F0FF3A38F49F779F930DD0FB
:1022E0000F9007FC9058089546F00C948B0F60E017
:1022F00070E080E89FE308954FE79F775F934F93E7
:102300003F932F930E9492122F913F914F915F9193
:102310000E94150F0C94DA1119F416F40C948B0F1B
:102320000C940C120E94B50FB8F39923C9F3B6F3BD
:102330009F57550B87FF0E941A120024A0E640EA1F
:10234000900180585695979528F4805C660F771F0A
:10235000881F20F026173707480730F4621B730BDD
:10236000840B202931294A2BA69517940794202500
:1023700031254A2758F7660F771F881F20F0261748
:102380003707480730F4620B730B840B200D311DA7
:10239000411DA09581F7B901842F9158880F96951A
:1023A0008795089529F416F00C94850F0C94CF0F9F
:1023B0000C948B0F0E94B50FA8F39638A0F707F87E
:1023C0000F92E8942BE33AEA48EB5FE70E942B0F69
:1023D0000F920F920F924DB75EB70F920E94DA12D2
:1023E000E8E6F0E00E9421124F915F91EF91FF919A
:1023F000E595EE1FFF1F49F0FE57E0684427EE0FFA
:10240000441FFA95E1F74195550B0E9454120F9025
:1024100007FE0C94481208959F3F31F0915020F42C
:10242000879577956795B795880F911D96958795B0
:1024300097F9089591505040660F771F881FD2F783
:102440000895DF93CF931F930F93FF92EF92DF9244
:102450007B018C01689406C0DA2EEF010E94280FE0
:10246000FE01E894A5912591359145915591A6F3EA
:10247000EF010E943F10FE019701A801DA9469F76D
:10248000DF90EF90FF900F911F91CF91DF91089512
:102490009B01AC0160E070E080E89FE30C94941035
:1024A0000C94850F0C940C120E94B50FD8F399234D
:1024B000C9F3940F511DA3F39150504094F059F07B
:1024C000882332F0660F771F881F91505040C1F764
:1024D0009E3F51052CF7880F911D9695879597F98A
:1024E00008955F3FACF0983E9CF0BB2786957795AA
:1024F0006795B79508F4B1609395C1F7BB0F58F78E
:1025000011F460FFE8CF6F5F7F4F8F4F9F4FE3CF96
:102510000C94D00F16F00C940C120C948B0F689442
:102520000C94850F0E94B50FA8F39923C1F3AEF365
:10253000DF93CF931F930F93FF92C92FDD2788233B
:102540002AF02197660F771F881FDAF720E030E026
:1025500040E85FEB9FE3883920F0803E38F0219619
:102560008F770E942810E0E9F0E004C00E94281054
:10257000EDEBF0E00E9421128B01BE01EC01FB2E7D
:102580006F5771097595771F880B990B0E94B60ECE
:1025900028E132E741E35FE30E94280FAF2D980165
:1025A000AE01FF900F911F91CF91DF910E943F10DC
:1025B0000C949C0FFA01DC01AA0FBB1F9B01AC011C
:1025C000BF5728F4222733274427507820C0B7511B
:1025D00090F4AB2F0024469537952795011CA395C1
:1025E000D2F3002071F0220F331F441FB395DAF3AA
:1025F0000ED00C94271061307105A0E88A07B94607
:1026000030F49B01AC0166277727882790783096B5
:1026100021F020833183428353830895DB018F931C
:102620009F930E94D60FBF91AF91A29F800D911DE5
:10263000A39F900DB29F900D11240895052E97FB36
:102640001EF400940E94351357FD07D00E943D13DD
:1026500007FC03D04EF40C943513509540953095FB
:1026600021953F4F4F4F5F4F0895909580957095FE
:1026700061957F4F8F4F9F4F0895A1E21A2EAA1B9D
:10268000BB1BFD010DC0AA1FBB1FEE1FFF1FA21722
:10269000B307E407F50720F0A21BB30BE40BF50B1F
:1026A000661F771F881F991F1A9469F760957095A8
:1026B000809590959B01AC01BD01CF010895EE0F6F
:1026C000FF1F0590F491E02D09940F931F93CF9372
:1026D000DF938230910510F482E090E0E091F60102
:1026E000F091F70130E020E0B0E0A0E0309799F4FD
:1026F0002115310509F44AC0281B390B2430310556
:10270000D8F58A819B816115710589F1FB0193835D
:102710008283FE0111C040815181028113814817DB
:102720005907E0F04817590799F4109761F012968D
:102730000C93129713961C933296CF01DF91CF9191
:102740001F910F9108950093F6011093F701F4CFB4
:102750002115310551F04217530738F0A901DB016B
:102760009A01BD01DF01F801C1CFEF01F9CF9093CC
:10277000F7018093F601CDCFFE01E20FF31F8193A5
:1027800091932250310939832883D7CF2091F401C6
:102790003091F501232B41F420911F01309120014C
:1027A0003093F5012093F40120911D0130911E0119
:1027B0002115310541F42DB73EB7409121015091CB
:1027C0002201241B350BE091F401F091F501E21791
:1027D000F307A0F42E1B3F0B2817390778F0AC0144
:1027E0004E5F5F4F2417350748F04E0F5F1F509321
:1027F000F5014093F401819391939FCFF0E0E0E0E5
:102800009CCFCF93DF930097E9F0FC0132971382BE
:102810001282A091F601B091F701ED0130E020E0C5
:102820001097A1F420813181820F931F2091F40130
:102830003091F5012817390709F061C0F093F501CF
:10284000E093F401DF91CF910895EA01CE17DF07FD
:10285000E8F54A815B819E0141155105B1F7E90117
:10286000FB83EA8349915991C40FD51FEC17FD07EB
:1028700061F4808191810296840F951FE90199830B
:102880008883828193819B838A83F0E0E0E01296C3
:102890008D919C9113970097B9F52D913C911197CB
:1028A000CD010296820F931F2091F4013091F50122
:1028B0002817390739F6309751F51092F701109221
:1028C000F601B093F501A093F401BCCFD383C2838A
:1028D00040815181840F951FC817D90761F44E5F5D
:1028E0005F4F88819981480F591F518340838A81A6
:1028F0009B81938382832115310509F0B0CFF0933A
:10290000F701E093F6019ECFFD01DC01C0CF1382F9
:102910001282D7CFB0E0A0E0E0E9F4E10C94E30F3D
:102920008C01009751F4CB010E9465138C01C80102
:10293000CDB7DEB7E0E10C94FF0FFC01E60FF71F07
:102940009C0122503109E217F30708F49DC0D90118
:10295000CD91DC911197C617D70798F0C530D105F6
:1029600030F3CE0104978617970708F3C61BD70BE1
:102970002297C193D1936D937C93CF010E94011450
:10298000D6CF5B01AC1ABD0A4C018C0E9D1EA091E6
:10299000F601B091F701512C412CF12CE12C10974C
:1029A00031F58091F4019091F5018815990509F0B0
:1029B0005CC04616570608F058C080911D019091E2
:1029C0001E01009741F48DB79EB7409121015091AF
:1029D0002201841B950BE817F90708F055C0F09306
:1029E000F501E093F401F90171836083A0CF8D912B
:1029F0009C91119712966C90129713967C90139756
:102A0000A815B90559F56C0142E0C40ED11CCA14D1
:102A1000DB0420F1AC014A195B09DA011296159723
:102A200080F06282738251834083D9016D937C93DD
:102A3000E114F10471F0D7011396FC93EE93129711
:102A400076CF22968C0F9D1FF90191838083F3012D
:102A5000EFCFF093F701E093F60169CF48165906DE
:102A600008F42C017D01D3019ACFCB010E9465139C
:102A70007C01009749F0AE01B8010E944715C801DA
:102A80000E940114870153CF10E000E050CFFB01FA
:102A9000DC0102C001900D9241505040D8F70895DA
:102AA000FB01DC0101900D920020E1F7089511E097
:102AB000CEE3D1E004C0FE010E945F132196CF3324
:082AC000D107C9F7F894FFCF1C
:102AC80011100F0E06050403023132332B3435364C
:102AD8002D373839782E303D2F43725E250000F8A7
:102AE80001800000000000DD02E102E502000000B4
:102AF80000CD04E9021F03E8024B616C6B756C6141
:042B0800746F720074
:00000001FF
